:020000040000FA
:08000000803102288731E82F4E
:100774003B009F1708003B009B1708003B009B139E
:1007840008003B00AF1708003B00AB1708003B0014
:10079400AB1308003B00BF1708003B00BB17080061
:1007A4003B00BB1308003B00CF1708003B00CB17EE
:1007B40008003B00CB130800163021009700080006
:1007C40071083B00940070089300080071083B0016
:1007D400A4007008A300080071083B00B40070086E
:1007E400B300080071083B00C4007008C30008008F
:1007F400FE0012001E000130FE020030FF3B7F08A5
:100804007E04031DFB2B00347030210099009801F5
:10081400220096010D2C21001A1F112C122C0D2CD4
:10082400132C0800843186248431843106248431D5
:100834008331DE23843184312A2484318431412478
:10084400843184316F248431843158248431080004
:100854003B009C019D0140309E009F01A00192013C
:10086400910194019301FF309600FF3095009801A7
:10087400013097009A01990190309B0008003B00D9
:10088400AC01AD014030AE00AF01B001A201A10145
:10089400A401A301FF30A600FF30A500A801013088
:1008A400A700AA01A9019030AB0008003B00BC01DD
:1008B400BD014030BE00BF01C001B201B101B401AD
:1008C400B301FF30B600FF30B500B8010130B70006
:1008D400BA01B9019030BB0008003B00CC01CD0146
:1008E4004030CE00CF01D001C201C101C401C30117
:1008F400FF30C600FF30C500C8010130C700CA017F
:10090400C9019030CB000800103022008C00153053
:100914008E002B3021008C008E0123008E018C016F
:1009240024008C018E012100951725008C018E0175
:10093400373026008C003F308E0006303D00A0008A
:10094400033094000430A4000530A20008002030D5
:10095400F0007008F100AE2C20008C1CB22CB32CDB
:10096400AE2CB42CF40107307402031CBA2CBB2C3B
:10097400BD2CFE2CFE2CF201F30108307302031C83
:10098400C42CC52CC82CE72CE72CC82C20000C1C2C
:10099400CC2CCD2CC82CCE2C0310F20DD12C0C1841
:1009A400D42CD52CD12CD62C0C0E890C0139F0006A
:1009B4007008F2040130F0007008F3070830730285
:1009C400031CE52CE62CC82CE72C7208F0007108F7
:1009D40086008701700881000130F0007008F1077B
:1009E4000130F0007008F40707307402031CFB2C7C
:1009F400FC2CBD2CFE2CFE2C20008C18022D032D6B
:100A0400FE2C042D0800003402341434023429343A
:100A140002343E340234553402346C3402348434A7
:100A240002349D340234B7340234D2340234EE3406
:100A340002340B3403342A340334493403346A341F
:100A440003348C340334AF340334D4340334FA34ED
:100A54000334223404344B34043476340434A2345E
:100A64000434D13404340134053433340534663465
:100A740005349C340534D43405340E3406344B34F4
:100A8400063489340634CA3406340E3407345434F4
:100A940007349E340734E9340734383408348A344C
:100AA4000834DF3408343834093494340934F334E2
:100AB400093456340A34BD340A3429340B34983496
:100AC4000B340B340C3483340C3400340D34823442
:100AD4000D3408340E3494340E3426340F34BD34BB
:100AE4000F3459341034FC341034A63411345634D1
:100AF40012340C341334CA341334903414345D3443
:100B04001534323416340F341734F5341734E334CF
:100B14001834DC341934DD341A34E9341B34FF342A
:100B24001C3420341E344D341F3485342034C934ED
:100B340021341A34233478342434E33425345D34B2
:100B44002734E53428347D342A3425342C34DD34F8
:100B54002D34A6342F34813431346E3433346F342D
:100B6400353484343734AD343934EC343B344134A3
:100B74003E34AE34403433344334D0344534883492
:100B840048345B344B344B344E3457345134823410
:100B94005434CC34573438345B34C5345E3476340E
:100BA40062344B34663447346A346A346E34B7344E
:100BB40072342F347734D3347B34A5348034A7345F
:100BC4008534DC348A3444349034E2349534B83493
:100BD4009B34C934A1341534A834A134AE346E34F2
:100BE400B5347E34BC34D534C3347534CB34623438
:100BF400D3349D34DB342A34E4340D34ED344834B6
:100C0400F634FF34FF34FF34FF3484311424863146
:100C14000030F000F1008331E22386310030F0002F
:100C2400F1008331E82386310030F000F100833194
:100C3400EE2386310030F000F1008331F423863155
:100C44008331BA2386318331C32386318331CC2364
:100C540086318331D52386312F2E22008E12332EF6
:100C6400332E8E11362E362E8E10392E392E0C112F
:100C74003B2E8331C02386318331C92386318331AE
:100C8400D22386318331DB2386318030F500750829
:100C94002000A7008030F5007508A8008030F5001A
:100CA4007508A9008030F5007508AA00592E843112
:100CB400A924863120002408F5007508A900250818
:100CC400F5007508AA002018682E692E712E803050
:100CD400F5007508A9008030F5007508AA00813078
:100CE4002902031C762E772E822E803027020318C9
:100CF4007C2E7D2E822E8030F5007508A900822E70
:100D0400803029020318872E882E932E81302702E3
:100D1400031C8D2E8E2E932E8030F5007508A900AD
:100D2400932E81302A02031C982E992EA42E8030F3
:100D3400280203189E2E9F2EA42E8030F5007508DD
:100D4400AA00A42E80302A020318A92EAA2EB62E99
:100D540081302802031CAF2EB02EB62E8030F50051
:100D64007508AA00B62EB62E80302906031DBB2EA8
:100D7400BC2ED52E8331C02386318331C9238631DD
:100D84000030F000F1008331E22386310030F000BE
:100D9400F1008331E82386318331BA2386318331EC
:100DA400C3238631D52E8030200029020318DB2E80
:100DB400DC2E112F80302706031DE12EE22EEB2EB0
:100DC40022008E12E52E8E15E72E8331BD23863147
:100DD400EB2E20002908F500F601F509F609F50ABD
:100DE4000319F60AF535F60D7508003EF7000130D3
:100DF400763DF800DE30F9002230FA0077087907F2
:100E0400860078087A3D8700403FF000413FF100BA
:100E14008331E22386318331BA238631112F813025
:100E240020002902031C172F182F482F8030270673
:100E3400031D1D2F1E2F272F22008E11212F8E16EA
:100E4400232F8331C6238631272F20002908F5005C
:100E5400F601F535F60D7508003EF700FF30763DD6
:100E6400F800DE30F9002230FA00770879078600AE
:100E740078087A3D8700403FF000413FF10083311C
:100E8400E82386318331C3238631482F8030200004
:100E94002A06031D4E2F4F2F682F8331D22386310C
:100EA4008331DB2386310030F000F1008331EE23FF
:100EB40086310030F000F1008331F4238631833130
:100EC400CC2386318331D5238631682F80302000AE
:100ED4002A0203186E2F6F2FA42F80302806031DBB
:100EE400742F752F7E2F22008E10782F0C157A2FD9
:100EF4008331CF2386317E2F20002A08F500F601A6
:100F0400F509F609F50A0319F60AF535F60D75081B
:100F1400003EF7000130763DF800DE30F900223063
:100F2400FA0077087907860078087A3D8700403F01
:100F3400F000413FF1008331EE2386318331CC232D
:100F44008631A42F813020002A02031CAA2FAB2F44
:100F5400DB2F80302806031DB02FB12FBA2F2200BB
:100F64000C11B42F8E14B62F8331D8238631BA2FA7
:100F740020002A08F500F601F535F60D7508003E47
:100F8400F700FF30763DF800DE30F9002230FA0039
:100F940077087907860078087A3D8700403FF0009B
:100FA400413FF1008331F42386318331D5238631E7
:100FB400DB2F20002908F5007508A7002A08F50092
:100FC4007508A800592E592E803102280530840056
:100FD40085308500DE308600223087000130FF0036
:100FE40002308331FA238731A001A101A201A301B8
:0C0FF400A401A501A60120008631072EF3
:020000040001F9
:04000E00A4FFFFDF6D
:00000001FF
