:04000000803115280E
:100008007E1480318B1D09280A2813280B1C0D2803
:100018000E281328823139228031132813287E10A4
:100028000900803117282030840000308500103006
:100038008131FF2180317E1020008131E329F601D2
:1000480004307602031C29282A282C28BC28BC281E
:100058007635203E86008701403FF900413FFA008F
:100068000F307A02A0300319790203183C283D2882
:100078003F28F428F4284E307A02213003197902F7
:10008800031C472848284A28F428F4287635283EAF
:1000980086008701403FF700413FF8007708780461
:1000A800031957285828A92878087A02031D5E28BA
:1000B8007708790203186128622880287909F200F4
:1000C8007A09F300F20A0319F30A77087207F400B1
:1000D8007808733DF50000307502C93003197402C1
:1000E800031C7728782880287708383EF900FF30E5
:1000F800783DFA00802880287A087802031D86282F
:1001080079087702031889288A28A9287709F2002C
:100118007809F300F20A0319F30A79087207F40060
:100128007A08733DF50000307502C930031974026E
:10013800031C9F28A028A9287708C83EF90000308A
:10014800783DFA00A928A928A9287635283E8600EE
:1001580087017908C03F7A08C13F0130F200720870
:10016800F60704307602031CBA28BB282C28BC28C2
:1001780020002908F1002808F00082311722803178
:1001880020002B08F1002A08F0008231112280316A
:1001980020002D08F1002C08F00082310B2280315C
:1001A80020002F08F1002E08F0008231052280314E
:1001B80082313622803182313022803182312A22C6
:1001C8008031823124228031823133228031823160
:1001D8002D228031823127228031823121228031C3
:1001E8000800F728640020008C1EFB28FC28F6284D
:1001F800FD28F40108307402031C03290429062988
:1002080045294529F201F30108307302031C0D2921
:100218000E29112932293229112920000C1E1529ED
:100228001629112917290310F20D1A290C1A1D294C
:100238001E291A291F290C0CF000F00C700C01392A
:10024800F1007108F2040130F0007008F30708307B
:100258007302031C30293129112932297208F00050
:100268007408203E86008701700881000130F00084
:100278007008F40708307402031C4329442906292E
:100288004529080022008C0110308E0038302100EA
:100298008C0030308E0023008E018C0124008C01EC
:1002A8008E012100951725008C018E01373026001C
:1002B8008C003F308E0006303D00A00004309100D5
:1002C800053092000330900008003B00CC01CD01BE
:1002D8002030CE00CF01D001C201C1012E30C400B0
:1002E8001430C300FF30C600FF30C500C80101301C
:1002F800C700CA01C9018030CB0008003B00BC011F
:10030800BD012030BE00BF01C001B201B1012E30D5
:10031800B4001430B300FF30B600FF30B500B801A8
:100328000130B700BA01B9018030BB0008003B00BA
:10033800AC01AD012030AE00AF01B001A201A101B6
:100348002E30A4001430A300FF30A600FF30A50013
:10035800A8010130A700AA01A9018030AB0008005C
:100368003B009C019D0120309E009F01A00192014D
:1003780091012E30940014309300FF309600FF3026
:1003880095009801013097009A01990180309B00EF
:1003980008008131462181318131F1218131823159
:1003A8001D2281318131B421813181319B218131FB
:1003B8008131692181318131822181310800813186
:1003C800CD218131E7298031F52081318031232009
:1003D8008131E729E72980311528703021009900FB
:1003E800980122009601F82921001A1FFC29FD29ED
:1003F800F829FE290800640080010131890B002AD0
:10040800003471083B00C4007008C300080071087C
:100418003B00B4007008B300080071083B00A4005A
:100428007008A300080071083B009400700893004E
:10043800080006302100970008003B00CB17080091
:100448003B00CF1708003B00BB1708003B00BF1755
:1004580008003B00AB1708003B00AF1708003B0043
:0C0468009B1708003B009F1708000800CD
:020000040001F9
:04000E00BCFFFFDF55
:00000001FF
