:020000040000FA
:04000000803115280E
:100008007E1480318B1D09280A2813280B1C0D2803
:100018000E2813288131B9218031132813287E1026
:10002800090080311728F001F101F201F301F40110
:10003800F501F601F7017E10200080312328813177
:1000480061218031E030F8002E30F90081319721AC
:100058008031E030F8002E30F90081319121803173
:10006800E030F8002E30F90081318B218031E0300A
:10007800F8002E30F9008131852180318131B62197
:1000880080318131B02180318131AA2180318131A3
:10009800A42180318131B32180318131AD2180317A
:1000A8008131A72180318131A12180315B288031C4
:1000B8008A2080317108F9007008F8008131972191
:1000C80080317308F9007208F8008131912180317C
:1000D8007508F9007408F80081318B2180317708A0
:1000E800F9007608F8008131852180318131B62107
:1000F80080318131B02180318131AA218031813133
:10010800A42180315B285B28803115288B282000AA
:100118008C1E8F2890288B289128FC0108307C029F
:10012800031C972898289A28D928D928FA01FB016E
:1001380008307B02031CA128A228A528C628C628A7
:10014800A52820000C1EA928AA28A528AB2803103A
:10015800FA0DAE280C1AB128B228AE28B3280C0C18
:10016800F800F80C780C0139F9007908FA04013024
:10017800F8007808FB0708307B02031CC428C52850
:10018800A528C6287A08F8007C08703E86008701F2
:10019800780881000130F8007808FC0708307C02F4
:1001A800031CD728D8289A28D928080022008C01AF
:1001B80010308E00383021008C0030308E00230043
:1001C8008E018C0124008C018E01210095172500D9
:1001D8008C018E01373026008C003F308E000630AF
:1001E8003D00A000043091000530920003309000DB
:1001F80008003B00CC01CD012030CE00CF01D0015A
:10020800C201C1012E30C4001430C300FF30C60043
:10021800FF30C500C8010130C700CA01C9018030DC
:10022800CB0008003B00BC01BD012030BE00BF016F
:10023800C001B201B1012E30B4001430B300FF3058
:10024800B600FF30B500B8010130B700BA01B901F6
:100258008030BB0008003B00AC01AD012030AE008F
:10026800AF01B001A201A1012E30A4001430A300F7
:10027800FF30A600FF30A500A8010130A700AA01A1
:10028800A9018030AB0008003B009C019D01203093
:100298009E009F01A001920191012E30940014301C
:1002A8009300FF309600FF309500980101309700C9
:1002B8009A01990180309B0008008031DA20813151
:1002C80081317721813181319D21813181314821ED
:1002D800813181312F2181318031FD20813181317E
:1002E8001621813108007030210099009801220000
:1002F80096017E2921001A1F822983297E298429B3
:10030800080079083B00C4007808C3000800790891
:100318003B00B4007808B300080079083B00A4004B
:100328007808A300080079083B0094007808930037
:10033800080016302100970008003B00CB17080082
:100348003B00CF1708003B00BB1708003B00BF1756
:1003580008003B00AB1708003B00AF1708003B0044
:0C0368009B1708003B009F1708000800CE
:020000040001F9
:04000E00A4FFFFDF6D
:00000001FF
